{
  "address": "0x34bCA2AD6AB47574d0b2c93BC9c17e5126546CAe",
  "abi": [
    {
      "inputs": [
        {
          "internalType": "address",
          "name": "_relay",
          "type": "address"
        },
        {
          "internalType": "uint256",
          "name": "_transferDeadline",
          "type": "uint256"
        },
        {
          "internalType": "uint256",
          "name": "_protocolFee",
          "type": "uint256"
        },
        {
          "internalType": "address",
          "name": "_treasury",
          "type": "address"
        },
        {
          "internalType": "bool",
          "name": "_isSignRequired",
          "type": "bool"
        }
      ],
      "stateMutability": "nonpayable",
      "type": "constructor"
    },
    {
      "anonymous": false,
      "inputs": [
        {
          "indexed": false,
          "internalType": "bytes32",
          "name": "txId",
          "type": "bytes32"
        },
        {
          "indexed": false,
          "internalType": "address",
          "name": "seller",
          "type": "address"
        },
        {
          "indexed": false,
          "internalType": "uint256",
          "name": "bidIdx",
          "type": "uint256"
        },
        {
          "indexed": false,
          "internalType": "uint256",
          "name": "deadline",
          "type": "uint256"
        }
      ],
      "name": "BidAccepted",
      "type": "event"
    },
    {
      "anonymous": false,
      "inputs": [
        {
          "indexed": false,
          "internalType": "bytes32",
          "name": "txId",
          "type": "bytes32"
        },
        {
          "indexed": false,
          "internalType": "address",
          "name": "seller",
          "type": "address"
        },
        {
          "indexed": false,
          "internalType": "uint256",
          "name": "bidIdx",
          "type": "uint256"
        }
      ],
      "name": "BidRevoked",
      "type": "event"
    },
    {
      "anonymous": false,
      "inputs": [
        {
          "indexed": false,
          "internalType": "bytes32",
          "name": "txId",
          "type": "bytes32"
        },
        {
          "indexed": false,
          "internalType": "uint256",
          "name": "outputIdx",
          "type": "uint256"
        },
        {
          "indexed": false,
          "internalType": "uint256",
          "name": "satoshiIdx",
          "type": "uint256"
        },
        {
          "indexed": false,
          "internalType": "address",
          "name": "seller",
          "type": "address"
        }
      ],
      "name": "NFTListed",
      "type": "event"
    },
    {
      "anonymous": false,
      "inputs": [
        {
          "indexed": false,
          "internalType": "bytes32",
          "name": "txId",
          "type": "bytes32"
        },
        {
          "indexed": false,
          "internalType": "address",
          "name": "seller",
          "type": "address"
        },
        {
          "indexed": false,
          "internalType": "uint256",
          "name": "bidIdx",
          "type": "uint256"
        },
        {
          "indexed": false,
          "internalType": "bytes32",
          "name": "newTxId",
          "type": "bytes32"
        },
        {
          "indexed": false,
          "internalType": "uint256",
          "name": "newOutputIdx",
          "type": "uint256"
        },
        {
          "indexed": false,
          "internalType": "uint256",
          "name": "newSatoshiIdx",
          "type": "uint256"
        },
        {
          "indexed": false,
          "internalType": "uint256",
          "name": "fee",
          "type": "uint256"
        }
      ],
      "name": "NFTSold",
      "type": "event"
    },
    {
      "anonymous": false,
      "inputs": [
        {
          "indexed": false,
          "internalType": "bytes32",
          "name": "txId",
          "type": "bytes32"
        },
        {
          "indexed": false,
          "internalType": "uint256",
          "name": "outputIdx",
          "type": "uint256"
        },
        {
          "indexed": false,
          "internalType": "uint256",
          "name": "satoshiIdx",
          "type": "uint256"
        },
        {
          "indexed": false,
          "internalType": "address",
          "name": "seller",
          "type": "address"
        },
        {
          "indexed": false,
          "internalType": "address",
          "name": "buyer",
          "type": "address"
        },
        {
          "indexed": false,
          "internalType": "bytes",
          "name": "buyerBTCScript",
          "type": "bytes"
        },
        {
          "indexed": false,
          "internalType": "enum ScriptTypes",
          "name": "buyerScriptType",
          "type": "uint8"
        },
        {
          "indexed": false,
          "internalType": "uint256",
          "name": "bidAmount",
          "type": "uint256"
        },
        {
          "indexed": false,
          "internalType": "uint256",
          "name": "bidIdx",
          "type": "uint256"
        }
      ],
      "name": "NewBid",
      "type": "event"
    },
    {
      "anonymous": false,
      "inputs": [
        {
          "indexed": true,
          "internalType": "address",
          "name": "previousOwner",
          "type": "address"
        },
        {
          "indexed": true,
          "internalType": "address",
          "name": "newOwner",
          "type": "address"
        }
      ],
      "name": "OwnershipTransferred",
      "type": "event"
    },
    {
      "anonymous": false,
      "inputs": [
        {
          "indexed": false,
          "internalType": "address",
          "name": "account",
          "type": "address"
        }
      ],
      "name": "Paused",
      "type": "event"
    },
    {
      "anonymous": false,
      "inputs": [
        {
          "indexed": false,
          "internalType": "address",
          "name": "account",
          "type": "address"
        }
      ],
      "name": "Unpaused",
      "type": "event"
    },
    {
      "inputs": [],
      "name": "MAX_PROTOCOL_FEE",
      "outputs": [
        {
          "internalType": "uint256",
          "name": "",
          "type": "uint256"
        }
      ],
      "stateMutability": "view",
      "type": "function"
    },
    {
      "inputs": [],
      "name": "Q",
      "outputs": [
        {
          "internalType": "uint256",
          "name": "",
          "type": "uint256"
        }
      ],
      "stateMutability": "view",
      "type": "function"
    },
    {
      "inputs": [
        {
          "internalType": "bytes",
          "name": "_data",
          "type": "bytes"
        }
      ],
      "name": "_bytesToAddress",
      "outputs": [
        {
          "internalType": "address",
          "name": "",
          "type": "address"
        }
      ],
      "stateMutability": "pure",
      "type": "function"
    },
    {
      "inputs": [
        {
          "internalType": "bytes",
          "name": "_data",
          "type": "bytes"
        }
      ],
      "name": "_convertToBytes32",
      "outputs": [
        {
          "internalType": "bytes32",
          "name": "",
          "type": "bytes32"
        }
      ],
      "stateMutability": "pure",
      "type": "function"
    },
    {
      "inputs": [
        {
          "internalType": "bytes32",
          "name": "_txId",
          "type": "bytes32"
        },
        {
          "internalType": "uint256",
          "name": "_bidIdx",
          "type": "uint256"
        }
      ],
      "name": "acceptBid",
      "outputs": [
        {
          "internalType": "bool",
          "name": "",
          "type": "bool"
        }
      ],
      "stateMutability": "nonpayable",
      "type": "function"
    },
    {
      "inputs": [
        {
          "internalType": "bytes32",
          "name": "",
          "type": "bytes32"
        },
        {
          "internalType": "address",
          "name": "",
          "type": "address"
        },
        {
          "internalType": "uint256",
          "name": "",
          "type": "uint256"
        }
      ],
      "name": "bids",
      "outputs": [
        {
          "internalType": "bytes",
          "name": "buyerBTCScript",
          "type": "bytes"
        },
        {
          "internalType": "enum ScriptTypes",
          "name": "buyerScriptType",
          "type": "uint8"
        },
        {
          "internalType": "address",
          "name": "buyerETHAddress",
          "type": "address"
        },
        {
          "internalType": "uint256",
          "name": "bidAmount",
          "type": "uint256"
        },
        {
          "internalType": "uint256",
          "name": "deadline",
          "type": "uint256"
        },
        {
          "internalType": "bool",
          "name": "isAccepted",
          "type": "bool"
        }
      ],
      "stateMutability": "view",
      "type": "function"
    },
    {
      "inputs": [],
      "name": "isSignRequired",
      "outputs": [
        {
          "internalType": "bool",
          "name": "",
          "type": "bool"
        }
      ],
      "stateMutability": "view",
      "type": "function"
    },
    {
      "inputs": [
        {
          "internalType": "bytes",
          "name": "_bitcoinPubKey",
          "type": "bytes"
        },
        {
          "internalType": "enum ScriptTypes",
          "name": "_scriptType",
          "type": "uint8"
        },
        {
          "internalType": "bytes32",
          "name": "_r",
          "type": "bytes32"
        },
        {
          "internalType": "bytes32",
          "name": "_s",
          "type": "bytes32"
        },
        {
          "internalType": "uint8",
          "name": "_v",
          "type": "uint8"
        },
        {
          "components": [
            {
              "internalType": "bytes4",
              "name": "version",
              "type": "bytes4"
            },
            {
              "internalType": "bytes",
              "name": "vin",
              "type": "bytes"
            },
            {
              "internalType": "bytes",
              "name": "vout",
              "type": "bytes"
            },
            {
              "internalType": "bytes4",
              "name": "locktime",
              "type": "bytes4"
            }
          ],
          "internalType": "struct IBitcoinNFTMarketplace.Tx",
          "name": "_tx",
          "type": "tuple"
        },
        {
          "internalType": "uint256",
          "name": "_outputIdx",
          "type": "uint256"
        },
        {
          "internalType": "uint256",
          "name": "_satoshiIdx",
          "type": "uint256"
        }
      ],
      "name": "listNFT",
      "outputs": [
        {
          "internalType": "bool",
          "name": "",
          "type": "bool"
        }
      ],
      "stateMutability": "nonpayable",
      "type": "function"
    },
    {
      "inputs": [
        {
          "internalType": "bytes32",
          "name": "",
          "type": "bytes32"
        },
        {
          "internalType": "address",
          "name": "",
          "type": "address"
        }
      ],
      "name": "nfts",
      "outputs": [
        {
          "internalType": "uint256",
          "name": "outputIdx",
          "type": "uint256"
        },
        {
          "internalType": "uint256",
          "name": "satoshiIdx",
          "type": "uint256"
        },
        {
          "internalType": "bool",
          "name": "isSold",
          "type": "bool"
        },
        {
          "internalType": "bool",
          "name": "hasAccepted",
          "type": "bool"
        },
        {
          "internalType": "bool",
          "name": "isListed",
          "type": "bool"
        }
      ],
      "stateMutability": "view",
      "type": "function"
    },
    {
      "inputs": [],
      "name": "owner",
      "outputs": [
        {
          "internalType": "address",
          "name": "",
          "type": "address"
        }
      ],
      "stateMutability": "view",
      "type": "function"
    },
    {
      "inputs": [],
      "name": "pause",
      "outputs": [],
      "stateMutability": "nonpayable",
      "type": "function"
    },
    {
      "inputs": [],
      "name": "paused",
      "outputs": [
        {
          "internalType": "bool",
          "name": "",
          "type": "bool"
        }
      ],
      "stateMutability": "view",
      "type": "function"
    },
    {
      "inputs": [],
      "name": "protocolFee",
      "outputs": [
        {
          "internalType": "uint256",
          "name": "",
          "type": "uint256"
        }
      ],
      "stateMutability": "view",
      "type": "function"
    },
    {
      "inputs": [
        {
          "internalType": "bytes32",
          "name": "_txId",
          "type": "bytes32"
        },
        {
          "internalType": "address",
          "name": "_seller",
          "type": "address"
        },
        {
          "internalType": "bytes",
          "name": "_buyerBTCScript",
          "type": "bytes"
        },
        {
          "internalType": "enum ScriptTypes",
          "name": "_scriptType",
          "type": "uint8"
        }
      ],
      "name": "putBid",
      "outputs": [
        {
          "internalType": "bool",
          "name": "",
          "type": "bool"
        }
      ],
      "stateMutability": "payable",
      "type": "function"
    },
    {
      "inputs": [],
      "name": "relay",
      "outputs": [
        {
          "internalType": "address",
          "name": "",
          "type": "address"
        }
      ],
      "stateMutability": "view",
      "type": "function"
    },
    {
      "inputs": [],
      "name": "renounceOwnership",
      "outputs": [],
      "stateMutability": "nonpayable",
      "type": "function"
    },
    {
      "inputs": [
        {
          "internalType": "bytes32",
          "name": "_txId",
          "type": "bytes32"
        },
        {
          "internalType": "address",
          "name": "_seller",
          "type": "address"
        },
        {
          "internalType": "uint256",
          "name": "_bidIdx",
          "type": "uint256"
        }
      ],
      "name": "revokeBid",
      "outputs": [
        {
          "internalType": "bool",
          "name": "",
          "type": "bool"
        }
      ],
      "stateMutability": "nonpayable",
      "type": "function"
    },
    {
      "inputs": [
        {
          "internalType": "bytes32",
          "name": "_txId",
          "type": "bytes32"
        },
        {
          "internalType": "address",
          "name": "_seller",
          "type": "address"
        },
        {
          "internalType": "uint256",
          "name": "_bidIdx",
          "type": "uint256"
        },
        {
          "components": [
            {
              "internalType": "bytes4",
              "name": "version",
              "type": "bytes4"
            },
            {
              "internalType": "bytes",
              "name": "vin",
              "type": "bytes"
            },
            {
              "internalType": "bytes",
              "name": "vout",
              "type": "bytes"
            },
            {
              "internalType": "bytes4",
              "name": "locktime",
              "type": "bytes4"
            }
          ],
          "internalType": "struct IBitcoinNFTMarketplace.Tx",
          "name": "_transferTx",
          "type": "tuple"
        },
        {
          "internalType": "uint256",
          "name": "_outputNFTIdx",
          "type": "uint256"
        },
        {
          "internalType": "uint256",
          "name": "_blockNumber",
          "type": "uint256"
        },
        {
          "internalType": "bytes",
          "name": "_intermediateNodes",
          "type": "bytes"
        },
        {
          "internalType": "uint256",
          "name": "_index",
          "type": "uint256"
        },
        {
          "components": [
            {
              "internalType": "bytes4",
              "name": "version",
              "type": "bytes4"
            },
            {
              "internalType": "bytes",
              "name": "vin",
              "type": "bytes"
            },
            {
              "internalType": "bytes",
              "name": "vout",
              "type": "bytes"
            },
            {
              "internalType": "bytes4",
              "name": "locktime",
              "type": "bytes4"
            }
          ],
          "internalType": "struct IBitcoinNFTMarketplace.Tx[]",
          "name": "_inputTxs",
          "type": "tuple[]"
        }
      ],
      "name": "sellNFT",
      "outputs": [
        {
          "internalType": "bool",
          "name": "",
          "type": "bool"
        }
      ],
      "stateMutability": "payable",
      "type": "function"
    },
    {
      "inputs": [
        {
          "internalType": "bool",
          "name": "_isSignRequired",
          "type": "bool"
        }
      ],
      "name": "setIsSignRequired",
      "outputs": [],
      "stateMutability": "nonpayable",
      "type": "function"
    },
    {
      "inputs": [
        {
          "internalType": "uint256",
          "name": "_protocolFee",
          "type": "uint256"
        }
      ],
      "name": "setProtocolFee",
      "outputs": [],
      "stateMutability": "nonpayable",
      "type": "function"
    },
    {
      "inputs": [
        {
          "internalType": "address",
          "name": "_relay",
          "type": "address"
        }
      ],
      "name": "setRelay",
      "outputs": [],
      "stateMutability": "nonpayable",
      "type": "function"
    },
    {
      "inputs": [
        {
          "internalType": "uint256",
          "name": "_transferDeadline",
          "type": "uint256"
        }
      ],
      "name": "setTransferDeadline",
      "outputs": [],
      "stateMutability": "nonpayable",
      "type": "function"
    },
    {
      "inputs": [
        {
          "internalType": "address",
          "name": "_treasury",
          "type": "address"
        }
      ],
      "name": "setTreasury",
      "outputs": [],
      "stateMutability": "nonpayable",
      "type": "function"
    },
    {
      "inputs": [],
      "name": "transferDeadline",
      "outputs": [
        {
          "internalType": "uint256",
          "name": "",
          "type": "uint256"
        }
      ],
      "stateMutability": "view",
      "type": "function"
    },
    {
      "inputs": [
        {
          "internalType": "address",
          "name": "newOwner",
          "type": "address"
        }
      ],
      "name": "transferOwnership",
      "outputs": [],
      "stateMutability": "nonpayable",
      "type": "function"
    },
    {
      "inputs": [],
      "name": "treasury",
      "outputs": [
        {
          "internalType": "address",
          "name": "",
          "type": "address"
        }
      ],
      "stateMutability": "view",
      "type": "function"
    },
    {
      "inputs": [],
      "name": "unpause",
      "outputs": [],
      "stateMutability": "nonpayable",
      "type": "function"
    },
    {
      "stateMutability": "payable",
      "type": "receive"
    }
  ],
  "transactionHash": "0x89ffc80c425f8078fc1fbc1ef749cc368bff7e724afc79d532edd9f6607aaec3",
  "args": [
    "0xc7a7C6AB475138565FE0D2476EE4616862Bf2467",
    144,
    0,
    "0xBffc372e2E00a247c17bf0A9eD0b993Bfe3607F5",
    false
  ],
  "numDeployments": 1,
  "solcInputHash": "9455363c200f4309eec645ad5e29e4fb",
  "bytecode": "0x60806040523480156200001157600080fd5b50604051620055ed380380620055ed8339810160408190526200003491620004f0565b6200003f336200008f565b600180556002805460ff191690556200005885620000df565b6200006384620001ae565b6200006e83620002f6565b6200007982620003a5565b62000084816200046a565b505050505062000599565b600080546001600160a01b038381166001600160a01b0319831681178455604051919092169283917f8be0079c531659141344cd1fd0a4f28419497f9722a3daafe3b4186f6b6457e09190a35050565b806001600160a01b0381166200013a5760405162461bcd60e51b81526020600482015260266024820152600080516020620055cd83398151915260448201526573207a65726f60d01b60648201526084015b60405180910390fd5b6000546001600160a01b03163314620001855760405162461bcd60e51b81526020600482018190526024820152600080516020620055ad833981519152604482015260640162000131565b50600280546001600160a01b0390921661010002610100600160a81b0319909216919091179055565b6000546001600160a01b03163314620001f95760405162461bcd60e51b81526020600482018190526024820152600080516020620055ad833981519152604482015260640162000131565b6000600260019054906101000a90046001600160a01b03166001600160a01b031663a072bc506040518163ffffffff1660e01b815260040160206040518083038186803b1580156200024a57600080fd5b505afa1580156200025f573d6000803e3d6000fd5b505050506040513d601f19601f8201168201806040525081019062000285919062000554565b9050620002948160026200056d565b8211620002f05760405162461bcd60e51b815260206004820152602360248201527f426974636f696e4e46544d61726b6574706c6163653a206c6f7720646561646c604482015262696e6560e81b606482015260840162000131565b50600355565b6000546001600160a01b03163314620003415760405162461bcd60e51b81526020600482018190526024820152600080516020620055ad833981519152604482015260640162000131565b806127101015620003a05760405162461bcd60e51b815260206004820152602260248201527f426974636f696e4e46544d61726b6574706c6163653a20696e76616c69642066604482015261656560f01b606482015260840162000131565b600455565b806001600160a01b038116620003fc5760405162461bcd60e51b81526020600482015260266024820152600080516020620055cd83398151915260448201526573207a65726f60d01b606482015260840162000131565b6000546001600160a01b03163314620004475760405162461bcd60e51b81526020600482018190526024820152600080516020620055ad833981519152604482015260640162000131565b50600580546001600160a01b0319166001600160a01b0392909216919091179055565b6000546001600160a01b03163314620004b55760405162461bcd60e51b81526020600482018190526024820152600080516020620055ad833981519152604482015260640162000131565b60028054911515600160a81b0260ff60a81b19909216919091179055565b80516001600160a01b0381168114620004eb57600080fd5b919050565b600080600080600060a0868803121562000508578081fd5b6200051386620004d3565b945060208601519350604086015192506200053160608701620004d3565b91506080860151801515811462000546578182fd5b809150509295509295909350565b60006020828403121562000566578081fd5b5051919050565b60008160001904831182151516156200059457634e487b7160e01b81526011600452602481fd5b500290565b61500480620005a96000396000f3fe6080604052600436106101a05760003560e01c8063835850f9116100ec578063c805f68b1161008a578063e493ef8c11610064578063e493ef8c146104eb578063f0f4426014610511578063f2fde38b14610531578063f60409e214610551576101a7565b8063c805f68b146104a5578063ccb4e581146104c5578063cf205ac6146104d8576101a7565b8063b0e21e8a116100c6578063b0e21e8a1461043e578063b59589d114610454578063b8ca3b8314610479578063bed6a6021461048f576101a7565b8063835850f9146103eb5780638456cb591461040b5780638da5cb5b14610420576101a7565b80635c4f5f3e1161015957806361d027b31161013357806361d027b31461034c5780636e0b0b1614610384578063715018a6146103b6578063787dce3d146103cb576101a7565b80635c4f5f3e146102e65780635c975abb146103065780635f5d05671461031e576101a7565b806313f16c67146101ac578063167604c8146101e15780633f4ba83a14610202578063402b533014610219578063482522d1146102395780635b5de72414610259576101a7565b366101a757005b600080fd5b3480156101b857600080fd5b506101cc6101c7366004614857565b610571565b60405190151581526020015b60405180910390f35b3480156101ed57600080fd5b506002546101cc90600160a81b900460ff1681565b34801561020e57600080fd5b506102176108f3565b005b34801561022557600080fd5b506101cc6102343660046148aa565b610927565b34801561024557600080fd5b506101cc61025436600461475e565b610e2c565b34801561026557600080fd5b506102b66102743660046146ce565b600660209081526000928352604080842090915290825290208054600182015460029092015490919060ff808216916101008104821691620100009091041685565b6040805195865260208601949094529115159284019290925290151560608301521515608082015260a0016101d8565b3480156102f257600080fd5b5061021761030136600461495b565b611282565b34801561031257600080fd5b5060025460ff166101cc565b34801561032a57600080fd5b5061033e610339366004614878565b6113a1565b6040519081526020016101d8565b34801561035857600080fd5b5060055461036c906001600160a01b031681565b6040516001600160a01b0390911681526020016101d8565b34801561039057600080fd5b506103a461039f36600461475e565b6113d0565b6040516101d896959493929190614b29565b3480156103c257600080fd5b506102176114d0565b3480156103d757600080fd5b506102176103e636600461495b565b6114fa565b3480156103f757600080fd5b5061036c610406366004614878565b611586565b34801561041757600080fd5b506102176115b1565b34801561042c57600080fd5b506000546001600160a01b031661036c565b34801561044a57600080fd5b5061033e60045481565b34801561046057600080fd5b5060025461036c9061010090046001600160a01b031681565b34801561048557600080fd5b5061033e61271081565b34801561049b57600080fd5b5061033e60035481565b3480156104b157600080fd5b506102176104c0366004614664565b6115e3565b6101cc6104d3366004614792565b61165d565b6101cc6104e63660046146f9565b611850565b3480156104f757600080fd5b5061033e70014551231950b75fc4402da1732fc9bebe1981565b34801561051d57600080fd5b5061021761052c366004614664565b611b19565b34801561053d57600080fd5b5061021761054c366004614664565b611b8d565b34801561055d57600080fd5b5061021761056c36600461467e565b611c28565b60006002600154141561059f5760405162461bcd60e51b815260040161059690614d7a565b60405180910390fd5b60026001556105b060025460ff1690565b156105cd5760405162461bcd60e51b815260040161059690614c4a565b6000838152600660209081526040808320338452909152902060020154610100900460ff161561064f5760405162461bcd60e51b815260206004820152602760248201527f426974636f696e4e46544d61726b6574706c6163653a20616c7265616479206160448201526618d8d95c1d195960ca1b6064820152608401610596565b600083815260076020908152604080832033845290915290205482106106c25760405162461bcd60e51b815260206004820152602260248201527f426974636f696e4e46544d61726b6574706c6163653a20696e76616c696420696044820152610c8f60f31b6064820152608401610596565b600083815260066020908152604080832033808552908352818420600201805461ff0019166101001790558684526007835281842090845290915290208054600191908490811061072357634e487b7160e01b600052603260045260246000fd5b906000526020600020906005020160040160006101000a81548160ff021916908315150217905550600354600260019054906101000a90046001600160a01b03166001600160a01b0316632f796d906040518163ffffffff1660e01b815260040160206040518083038186803b15801561079c57600080fd5b505afa1580156107b0573d6000803e3d6000fd5b505050506040513d601f19601f820116820180604052508101906107d491906146b6565b6107de9190614de1565b6000848152600760209081526040808320338452909152902080548490811061081757634e487b7160e01b600052603260045260246000fd5b60009182526020909120600360059092020101557f67077f73da3702447cb96468597fc9553e834ddfbb3040fef757bdd45a02a284833360008681526007602052604081208691336001600160a01b03166001600160a01b03168152602001908152602001600020868154811061089e57634e487b7160e01b600052603260045260246000fd5b9060005260206000209060050201600301546040516108df94939291909384526001600160a01b039290921660208401526040830152606082015260800190565b60405180910390a150600180805592915050565b6000546001600160a01b0316331461091d5760405162461bcd60e51b815260040161059690614d45565b610925611c70565b565b600061093560025460ff1690565b156109525760405162461bcd60e51b815260040161059690614c4a565b60006109708560000151866020015187604001518860600151611d03565b600081815260066020908152604080832033845290915290206002015490915062010000900460ff16156109f45760405162461bcd60e51b815260206004820152602560248201527f426974636f696e4e46544d61726b6574706c6163653a20616c7265616479206c6044820152641a5cdd195960da1b6064820152608401610596565b600254600160a81b900460ff1615610d4757895160401480610a1557508951155b610a535760405162461bcd60e51b815260206004820152600f60248201526e696e76616c696420707562206b657960881b6044820152606401610596565b6000610a63866040015186611df7565b905060058a6005811115610a8757634e487b7160e01b600052602160045260246000fd5b1415610aca57610aa9610aa06103398360026021611e6b565b838b8b8b611ee5565b610ac55760405162461bcd60e51b815260040161059690614b8d565b610d45565b60038a6005811115610aec57634e487b7160e01b600052602160045260246000fd5b1415610b9257610b35610b028260016028611e6b565b610b30600460f81b8e604051602001610b1c9291906149c1565b6040516020818303038152906040526120c8565b6121a5565b610b8d5760405162461bcd60e51b8152602060048201526024808201527f426974636f696e4e46544d61726b6574706c6163653a2077726f6e6720707562604482015263206b657960e01b6064820152608401610596565b610c81565b60018a6005811115610bb457634e487b7160e01b600052602160045260246000fd5b1415610bca57610b35610b028260036016611e6b565b60008a6005811115610bec57634e487b7160e01b600052602160045260246000fd5b1415610c2d57610b35610c028260006040611e6b565b604051610c1990600160fa1b908f906020016149c1565b6040516020818303038152906040526121a5565b60405162461bcd60e51b815260206004820152602360248201527f426974636f696e4e46544d61726b6574706c6163653a20696e76616c6964207460448201526279706560e81b6064820152608401610596565b60408051600081526020810180835284905260ff891691810191909152606081018a90526080810189905260019060a0016020604051602081039080840390855afa158015610cd4573d6000803e3d6000fd5b505050602060405103516001600160a01b0316610d1f6104068d80519060200120604051602001610d0791815260200190565b604051602081830303815290604052600c601f611e6b565b6001600160a01b031614610d455760405162461bcd60e51b815260040161059690614b8d565b505b6040805160a0810182526000818301818152606080840183815289855260208086018a8152600160808089018281528b8952600685528a892033808b52908652988b90208a518155935192840192909255955160029092018054945191511515620100000262ff0000199215156101000261ff001994151560ff19909716969096179390931694909417161790915585518781529081018a905280860189905290810192909252925191927f254c1be71b6cdd80f1673aafeb710a3b31e4336467ab0eff677820714820cf7592918290030190a15060019a9950505050505050505050565b600060026001541415610e515760405162461bcd60e51b815260040161059690614d7a565b600260015560008481526007602090815260408083206001600160a01b03871684529091529020805433919084908110610e9b57634e487b7160e01b600052603260045260246000fd5b600091825260209091206005909102016001015461010090046001600160a01b031614610f0a5760405162461bcd60e51b815260206004820181905260248201527f426974636f696e4e46544d61726b6574706c6163653a206e6f74206f776e65726044820152606401610596565b60008481526007602090815260408083206001600160a01b03871684529091529020805483908110610f4c57634e487b7160e01b600052603260045260246000fd5b600091825260209091206004600590920201015460ff16156111475760008481526006602090815260408083206001600160a01b038716845290915290206002015460ff1615610fde5760405162461bcd60e51b815260206004820152601f60248201527f426974636f696e4e46544d61726b6574706c6163653a206e667420736f6c64006044820152606401610596565b60008481526007602090815260408083206001600160a01b0387168452909152902080548390811061102057634e487b7160e01b600052603260045260246000fd5b906000526020600020906005020160030154600260019054906101000a90046001600160a01b03166001600160a01b0316632f796d906040518163ffffffff1660e01b815260040160206040518083038186803b15801561108057600080fd5b505afa158015611094573d6000803e3d6000fd5b505050506040513d601f19601f820116820180604052508101906110b891906146b6565b116111185760405162461bcd60e51b815260206004820152602a60248201527f426974636f696e4e46544d61726b6574706c6163653a20646561646c696e65206044820152691b9bdd081c185cdcd95960b21b6064820152608401610596565b60008481526006602090815260408083206001600160a01b03871684529091529020600201805461ff00191690555b6111a43360008681526007602090815260408083206001600160a01b0389168452909152902080548590811061118d57634e487b7160e01b600052603260045260246000fd5b9060005260206000209060050201600201546121c1565b60008481526007602090815260408083206001600160a01b038716845290915290208054839081106111e657634e487b7160e01b600052603260045260246000fd5b6000918252602082206005909102019061120082826143e4565b506001810180546001600160a81b03191690556000600282018190556003820155600401805460ff19169055604080518581526001600160a01b03851660208201529081018390527fc03ca8fb8237ad71d15dfb192bef3bcb24fbaf1fe3c483a26ec7c481c8bc3c099060600160405180910390a15060018080559392505050565b6000546001600160a01b031633146112ac5760405162461bcd60e51b815260040161059690614d45565b6000600260019054906101000a90046001600160a01b03166001600160a01b031663a072bc506040518163ffffffff1660e01b815260040160206040518083038186803b1580156112fc57600080fd5b505afa158015611310573d6000803e3d6000fd5b505050506040513d601f19601f8201168201806040525081019061133491906146b6565b9050611341816002614e69565b821161139b5760405162461bcd60e51b815260206004820152602360248201527f426974636f696e4e46544d61726b6574706c6163653a206c6f7720646561646c604482015262696e6560e81b6064820152608401610596565b50600355565b600081516020146113c45760405162461bcd60e51b815260040161059690614c08565b5060208101515b919050565b600760205282600052604060002060205281600052604060002081815481106113f857600080fd5b9060005260206000209060050201600092509250505080600001805461141d90614f1b565b80601f016020809104026020016040519081016040528092919081815260200182805461144990614f1b565b80156114965780601f1061146b57610100808354040283529160200191611496565b820191906000526020600020905b81548152906001019060200180831161147957829003601f168201915b50505050600183015460028401546003850154600490950154939460ff808416956101009094046001600160a01b03169450919290911686565b6000546001600160a01b031633146109255760405162461bcd60e51b815260040161059690614d45565b6000546001600160a01b031633146115245760405162461bcd60e51b815260040161059690614d45565b8061271010156115815760405162461bcd60e51b815260206004820152602260248201527f426974636f696e4e46544d61726b6574706c6163653a20696e76616c69642066604482015261656560f01b6064820152608401610596565b600455565b600081516014146115a95760405162461bcd60e51b815260040161059690614c08565b506014015190565b6000546001600160a01b031633146115db5760405162461bcd60e51b815260040161059690614d45565b6109256122df565b806001600160a01b03811661160a5760405162461bcd60e51b815260040161059690614cba565b6000546001600160a01b031633146116345760405162461bcd60e51b815260040161059690614d45565b50600280546001600160a01b0390921661010002610100600160a81b0319909216919091179055565b6000600260015414156116825760405162461bcd60e51b815260040161059690614d7a565b600260015561169360025460ff1690565b156116b05760405162461bcd60e51b815260040161059690614c4a565b60008a81526006602090815260408083206001600160a01b038d16845290915290206002015460ff16156117265760405162461bcd60e51b815260206004820152601f60248201527f426974636f696e4e46544d61726b6574706c6163653a20736f6c64206e6674006044820152606401610596565b6000611744886000015189602001518a604001518b60600151611d03565b905061175281878787612337565b6117aa5760405162461bcd60e51b8152602060048201526024808201527f426974636f696e4e46544d61726b6574706c6163653a206e6f742066696e616c6044820152631a5e995960e21b6064820152608401610596565b60006117bc8c8c8b60200151876124bb565b905060006117d28d8d8d8d604001518d8761272c565b604080518f81526001600160a01b038f1660208201529081018d905260608101859052608081018b905260a0810184905260c081018290529091507f1e2b860d3541f0d939471e19eb74ddb8ce09cdb786310d5c7fbd8fcd6e972cab9060e00160405180910390a1505060018080559b9a5050505050505050505050565b600061185e60025460ff1690565b1561187b5760405162461bcd60e51b815260040161059690614c4a565b60008581526006602090815260408083206001600160a01b038816845290915290206002015460ff16156118f15760405162461bcd60e51b815260206004820152601f60248201527f426974636f696e4e46544d61726b6574706c6163653a20736f6c64206e6674006044820152606401610596565b6118fb8383612a3b565b6119356040805160c08101909152606081526020810160008152600060208201819052604082018190526060820181905260809091015290565b8381526020810183600581111561195c57634e487b7160e01b600052602160045260246000fd5b9081600581111561197d57634e487b7160e01b600052602160045260246000fd5b905250336040828101919091523460608301526000878152600760209081528282206001600160a01b038916835281529181208054600181018255908252908290208351805185946005909402909201926119dd92849290910190614420565b50602082015160018083018054909160ff1990911690836005811115611a1357634e487b7160e01b600052602160045260246000fd5b021790555060408281015160018381018054610100600160a81b0319166101006001600160a01b0394851602179055606085015160028501556080850151600385015560a0909401516004909301805460ff191693151593909317909255600089815260076020908152828220938a168252929092528120549091611a9791614eb1565b60008881526006602090815260408083206001600160a01b038b16845290915290819020805460019091015491519293507fb203f3ced610dfa81b04fd18141a5ab1d97c312e1329aa5b37fbfc1d17f4c81b92611b02928b92918b9033908c908c9034908b90614ac0565b60405180910390a16001925050505b949350505050565b806001600160a01b038116611b405760405162461bcd60e51b815260040161059690614cba565b6000546001600160a01b03163314611b6a5760405162461bcd60e51b815260040161059690614d45565b50600580546001600160a01b0319166001600160a01b0392909216919091179055565b6000546001600160a01b03163314611bb75760405162461bcd60e51b815260040161059690614d45565b6001600160a01b038116611c1c5760405162461bcd60e51b815260206004820152602660248201527f4f776e61626c653a206e6577206f776e657220697320746865207a65726f206160448201526564647265737360d01b6064820152608401610596565b611c2581612b02565b50565b6000546001600160a01b03163314611c525760405162461bcd60e51b815260040161059690614d45565b60028054911515600160a81b0260ff60a81b19909216919091179055565b60025460ff16611cb95760405162461bcd60e51b815260206004820152601460248201527314185d5cd8589b194e881b9bdd081c185d5cd95960621b6044820152606401610596565b6002805460ff191690557f5db9ee0a495bf2e6ff9c91a7834c1ba4fdd244a5e8aa4e537bd38aeae4b073aa335b6040516001600160a01b03909116815260200160405180910390a1565b600080600286868686604051602001611d1f94939291906149f2565b60408051601f1981840301815290829052611d3991614a45565b602060405180830381855afa158015611d56573d6000803e3d6000fd5b5050506040513d601f19601f82011682018060405250810190611d7991906146b6565b90506000600282604051602001611d9291815260200190565b60408051601f1981840301815290829052611dac91614a45565b602060405180830381855afa158015611dc9573d6000803e3d6000fd5b5050506040513d601f19601f82011682018060405250810190611dec91906146b6565b979650505050505050565b60606000611e0f611e0a825b8690612b52565b612b76565b905062ffffff198082161415611e375760405162461bcd60e51b815260040161059690614bd1565b6000611e438285612cac565b90506000611e5082612dcb565b9050611e6162ffffff198216612e1c565b9695505050505050565b60606000835b838111611edc57858181518110611e9857634e487b7160e01b600052603260045260246000fd5b602001015160f81c60f81b91508282604051602001611eb8929190614a61565b60405160208183030381529060405292508080611ed490614f50565b915050611e71565b50509392505050565b60008070014551231950b75fc4402da1732fc9bebe19878509611f1a9070014551231950b75fc4402da1732fc9bebe19614eb1565b9050600070014551231950b75fc4402da1732fc9bebe19888709611f509070014551231950b75fc4402da1732fc9bebe19614eb1565b905081611f9f5760405162461bcd60e51b815260206004820181905260248201527f426974636f696e4e46544d61726b6574706c6163653a2077726f6e67207369676044820152606401610596565b6040805160008082526020820180845285905260ff871692820192909252606081018a90526080810183905260019060a0016020604051602081039080840390855afa158015611ff3573d6000803e3d6000fd5b5050604051601f1901519150506001600160a01b0381166120665760405162461bcd60e51b815260206004820152602760248201527f426974636f696e4e46544d61726b6574706c6163653a2065637265636f7665726044820152660819985a5b195960ca1b6064820152608401610596565b6040516001600160601b0319606083901b1660208201526001600160f81b031960f887901b166034820152603581018a905260558101899052607501604051602081830303815290604052805190602001208714935050505095945050505050565b606060006002836040516120dc9190614a45565b602060405180830381855afa1580156120f9573d6000803e3d6000fd5b5050506040513d601f19601f8201168201806040525081019061211c91906146b6565b9050600060038260405160200161213591815260200190565b60408051601f198184030181529082905261214f91614a45565b602060405180830381855afa15801561216c573d6000803e3d6000fd5b5050604051805160601b6001600160601b0319811660208301529250603401905060405160208183030381529060405292505050919050565b6000818051906020012083805190602001201490505b92915050565b804710156122115760405162461bcd60e51b815260206004820152601d60248201527f416464726573733a20696e73756666696369656e742062616c616e63650000006044820152606401610596565b6000826001600160a01b03168260405160006040518083038185875af1925050503d806000811461225e576040519150601f19603f3d011682016040523d82523d6000602084013e612263565b606091505b50509050806122da5760405162461bcd60e51b815260206004820152603a60248201527f416464726573733a20756e61626c6520746f2073656e642076616c75652c207260448201527f6563697069656e74206d617920686176652072657665727465640000000000006064820152608401610596565b505050565b60025460ff16156123025760405162461bcd60e51b815260040161059690614c4a565b6002805460ff191660011790557f62e78cea01bee320cd4e420270b5ea74000d11b0c9f74754ebdbfc544b05a258611ce63390565b60025460405163d0a8973960e01b8152600481018590526000602482018190529182916101009091046001600160a01b03169063d0a897399060440160206040518083038186803b15801561238b57600080fd5b505afa15801561239f573d6000803e3d6000fd5b505050506040513d601f19601f820116820180604052508101906123c391906146b6565b9050803410156124305760405162461bcd60e51b815260206004820152603260248201527f426974636f696e4e46544d61726b6574706c6163653a2072656c617920666565604482015271081a5cc81b9bdd081cdd59999a58da595b9d60721b6064820152608401610596565b6000612492600260019054906101000a90046001600160a01b0316888888886040516024016124629493929190614a90565b60408051601f198184030181529190526020810180516001600160e01b0316634354da2560e01b17905284612e6c565b90506124a7336124a28434614eb1565b6121c1565b80806020019051810190611dec919061469a565b60008080805b8451811015612652576124d48682612e9c565b80935081945050506125948582815181106124ff57634e487b7160e01b600052603260045260246000fd5b60200260200101516000015186838151811061252b57634e487b7160e01b600052603260045260246000fd5b60200260200101516020015187848151811061255757634e487b7160e01b600052603260045260246000fd5b60200260200101516040015188858151811061258357634e487b7160e01b600052603260045260246000fd5b602002602001015160600151611d03565b83146125f65760405162461bcd60e51b815260206004820152602b60248201527f426974636f696e4e46544d61726b6574706c6163653a206f7574706f696e742060448201526a0427a40d2dce0eae840e8f60ab1b6064820152608401610596565b61262b85828151811061261957634e487b7160e01b600052603260045260246000fd5b60200260200101516040015183612f4b565b61263e906001600160401b031685614de1565b93508061264a81614f50565b9150506124c1565b5061265e858551612e9c565b90925090508682148015612693575060008781526006602090815260408083206001600160a01b038a16845290915290205481145b6126fc5760405162461bcd60e51b815260206004820152603460248201527f426974636f696e4e46544d61726b6574706c6163653a206f7574706f696e74206044820152731b9bdd081b585d18da081dda5d1a0817dd1e125960621b6064820152608401610596565b60008781526006602090815260408083206001600160a01b038a168452909152902060010154611dec9084614de1565b60008060005b8481101561276b576127448682612f4b565b612757906001600160401b031683614de1565b91508061276381614f50565b915050612732565b508315612791578083116127915760405162461bcd60e51b815260040161059690614c74565b60008881526007602090815260408083206001600160a01b038b168452909152902080546128e79187918791908a9081106127dc57634e487b7160e01b600052603260045260246000fd5b906000526020600020906005020160000180546127f890614f1b565b80601f016020809104026020016040519081016040528092919081815260200182805461282490614f1b565b80156128715780601f1061284657610100808354040283529160200191612871565b820191906000526020600020905b81548152906001019060200180831161285457829003601f168201915b5050505050600760008d815260200190815260200160002060008c6001600160a01b03166001600160a01b031681526020019081526020016000208a815481106128cb57634e487b7160e01b600052603260045260246000fd5b600091825260209091206001600590920201015460ff16612f99565b6128fa906001600160401b031682614de1565b8311156129195760405162461bcd60e51b815260040161059690614c74565b60008881526006602090815260408083206001600160a01b038b16808552908352818420600201805460ff191660011790558b8452600783528184209084529091529020805461271091908890811061298257634e487b7160e01b600052603260045260246000fd5b9060005260206000209060050201600201546004546129a19190614e69565b6129ab9190614e49565b60008981526007602090815260408083206001600160a01b038c16845290915290208054919350612a1491899185918a9081106129f857634e487b7160e01b600052603260045260246000fd5b9060005260206000209060050201600201546124a29190614eb1565b8115612a3057600554612a30906001600160a01b0316836121c1565b509695505050505050565b6000816005811115612a5d57634e487b7160e01b600052602160045260246000fd5b1480612a8857506004816005811115612a8657634e487b7160e01b600052602160045260246000fd5b145b80612ab257506005816005811115612ab057634e487b7160e01b600052602160045260246000fd5b145b15612add578151602014612ad85760405162461bcd60e51b815260040161059690614d00565b612afe565b8151601414612afe5760405162461bcd60e51b815260040161059690614d00565b5050565b600080546001600160a01b038381166001600160a01b0319831681178455604051919092169283917f8be0079c531659141344cd1fd0a4f28419497f9722a3daafe3b4186f6b6457e09190a35050565b815160009060208401612b6d64ffffffffff8516828461320a565b95945050505050565b60008181612b8c815b62ffffff1984169061324e565b50601884901c6001600160601b0316612bac5762ffffff195b9250612ca5565b6000612bb9856000613328565b9050601885901c6001600160601b03166001600160401b038216612be65762ffffff195b94505050612ca5565b6000612bf18361346f565b60ff16905060005b836001600160401b0316811015612c6d57828210612c225762ffffff195b965050505050612ca5565b6000612c42612c318486614eb1565b600e5b62ffffff198c1691906134c8565b9050612c4d816134fc565b612c579084614de1565b9250508080612c6590614f50565b915050612bf9565b50818114612c855762ffffff195b9550505050612ca5565b612c9f600f5b60d81b6301000000600160d81b0389161790565b95505050505b5050919050565b600082600f612cba81612b7f565b506000612cc8866000613328565b6001600160401b03169050601886901c6001600160601b0316818610612d245760405162461bcd60e51b81526020600482015260116024820152702b37baba103932b0b21037bb32b9393ab760791b6044820152606401610596565b6000612d2f8361346f565b60ff1690506000805b88811015612d8757612d5e612d4d8486614eb1565b600e5b62ffffff198d1691906134c8565b9150612d69826134fc565b612d739084614de1565b9250612d80600182614de1565b9050612d38565b50612d95612c318385614eb1565b90506000612da2826134fc565b9050612dbb8382600d5b62ffffff198e16929190613545565b975050505050505b505092915050565b600081600d612dd981612b7f565b506000612de7856008613328565b9050612b6d612df58261346f565b612e00906008614df9565b62ffffff1987169060ff166001600160401b0384166007613545565b6060600080612e348460181c6001600160601b031690565b60405193508392506001600160601b03169050612e5b84612e56846020614de1565b6135b5565b508181016020016040529052919050565b6060612e92848484604051806060016040528060298152602001614fa66029913961370d565b90505b9392505050565b60008080612eb2612ead8683612b52565b61382a565b905062ffffff198082161415612f0a5760405162461bcd60e51b815260206004820152601a60248201527f426974636f696e48656c7065723a2076696e206973206e756c6c0000000000006044820152606401610596565b6000612f16828661391b565b90506000612f2382613a14565b9050612f2e81613a38565b9450612f3981613a5a565b63ffffffff1693505050509250929050565b600080612f5a611e0a82611e03565b905062ffffff198082161415612f825760405162461bcd60e51b815260040161059690614bd1565b6000612f8e8285612cac565b9050612b6d81613a84565b600080612fa9611e0a8783612b52565b905062ffffff198082161415612fd15760405162461bcd60e51b815260040161059690614bd1565b6000612fdd8287612cac565b90506000612fea82612dcb565b9050600585600581111561300e57634e487b7160e01b600052602160045260246000fd5b14156130735761302762ffffff19821660026020613aa9565b60405160200161303991815260200190565b6040516020818303038152906040528051906020012086805190602001201461306357600061306c565b61306c82613a84565b93506131ff565b600085600581111561309557634e487b7160e01b600052602160045260246000fd5b14156130ae5761302762ffffff19821660016020613aa9565b60018560058111156130d057634e487b7160e01b600052602160045260246000fd5b141561310a576130e762ffffff1982166003613c02565b604051602001613039919060609190911b6001600160601b031916815260140190565b600285600581111561312c57634e487b7160e01b600052602160045260246000fd5b1415613143576130e762ffffff1982166002613c02565b600385600581111561316557634e487b7160e01b600052602160045260246000fd5b141561317c576130e762ffffff1982166002613c02565b600485600581111561319e57634e487b7160e01b600052602160045260246000fd5b14156131ff576131b762ffffff19821660026020613aa9565b6040516020016131c991815260200190565b604051602081830303815290604052805190602001208680519060200120146131f35760006131fc565b6131fc82613a84565b93505b505050949350505050565b6000806132178385614de1565b9050604051811115613227575060005b806132395762ffffff19915050612e95565b5050606092831b9190911790911b1760181b90565b600061325a8383613c10565b61332157600061327961326d8560d81c90565b64ffffffffff16613c33565b915050600061328e8464ffffffffff16613c33565b6040517f5479706520617373657274696f6e206661696c65642e20476f7420307800000060208201526001600160b01b031960b086811b8216603d8401526c05c408af0e0cac6e8cac84060f609b1b604784015283901b16605482015290925060009150605e015b60405160208183030381529060405290508060405162461bcd60e51b81526004016105969190614b7a565b5090919050565b60008061333d62ffffff198516846001613cdf565b905060fc81116133585761335081613d0f565b9150506121bb565b8060fd14156133be57613386613381613372856001614de1565b62ffffff198716906002613d7b565b613d0f565b91506133918261346f565b60ff166003146133b9576133b76133b262ffffff1986168560036000613545565b613ec5565b505b613468565b8060fe1415613413576133e76133816133d8856001614de1565b62ffffff198716906004613d7b565b91506133f28261346f565b60ff166005146133b9576133b76133b262ffffff1986168560056000613545565b8060ff14156134685761343c61338161342d856001614de1565b62ffffff198716906008613d7b565b91506134478261346f565b60ff1660091461346857612dc36133b262ffffff1986168560096000613545565b5092915050565b600060fc826001600160401b03161161348a575060016113cb565b61ffff826001600160401b0316116134a4575060036113cb565b63ffffffff826001600160401b0316116134c0575060056113cb565b5060096113cb565b6000612e9284846134e28760181c6001600160601b031690565b6001600160601b03166134f59190614eb1565b8585613545565b600081600e61350a81612b7f565b506000613518856008613328565b9050806001600160401b031661352d8261346f565b60ff1661353a9190614de1565b612b6d906008614de1565b60008061355b8660781c6001600160601b031690565b6001600160601b0316905061356f86613f4c565b8461357a8784614de1565b6135849190614de1565b11156135975762ffffff19915050611b11565b6135a18582614de1565b9050611e618364ffffffffff16828661320a565b600062ffffff19808416141561361e5760405162461bcd60e51b815260206004820152602860248201527f54797065644d656d566965772f636f7079546f202d204e756c6c20706f696e7460448201526732b9103232b932b360c11b6064820152608401610596565b61362783613f8d565b6136875760405162461bcd60e51b815260206004820152602b60248201527f54797065644d656d566965772f636f7079546f202d20496e76616c696420706f60448201526a34b73a32b9103232b932b360a91b6064820152608401610596565b600061369c8460181c6001600160601b031690565b6001600160601b0316905060006136bc8560781c6001600160601b031690565b6001600160601b0316905060006040519050848111156136dc5760206060fd5b8285848460045afa50611e616136f28760d81c90565b64ffffffffff60601b606091821b168717901b841760181b90565b60608247101561376e5760405162461bcd60e51b815260206004820152602660248201527f416464726573733a20696e73756666696369656e742062616c616e636520666f6044820152651c8818d85b1b60d21b6064820152608401610596565b843b6137bc5760405162461bcd60e51b815260206004820152601d60248201527f416464726573733a2063616c6c20746f206e6f6e2d636f6e74726163740000006044820152606401610596565b600080866001600160a01b031685876040516137d89190614a45565b60006040518083038185875af1925050503d8060008114613815576040519150601f19603f3d011682016040523d82523d6000602084013e61381a565b606091505b5091509150611dec828286613fcb565b6000818161383781612b7f565b50601884901c6001600160601b03166138545762ffffff19612ba5565b6000613861856000613328565b9050601885901c6001600160601b03166001600160401b0382166138895762ffffff19612bdd565b60006138948361346f565b60ff16905060005b836001600160401b03168110156138ff578282106138be5762ffffff19612c17565b60006138d46138cd8486614eb1565b6005612c34565b90506138df81614004565b6138e99084614de1565b92505080806138f790614f50565b91505061389c565b508181146139115762ffffff19612c7b565b612c9f6006612c8b565b600082600661392981612b7f565b506000613937866000613328565b6001600160401b03169050601886901c6001600160601b03168186106139925760405162461bcd60e51b815260206004820152601060248201526f2b34b7103932b0b21037bb32b9393ab760811b6044820152606401610596565b600061399d8361346f565b60ff1690506000805b888110156139eb576139c26139bb8486614eb1565b6005612d50565b91506139cd82614004565b6139d79084614de1565b92506139e4600182614de1565b90506139a6565b506139f96138cd8385614eb1565b90506000613a0682614004565b9050612dbb83826004612dac565b6000816004613a2281612b7f565b50611b1162ffffff198516600060246003613545565b6000816003613a4681612b7f565b50611b1162ffffff19851660006020613aa9565b6000816003613a6881612b7f565b50611b11613a7f62ffffff19861660206004613d7b565b614058565b600081600d613a9281612b7f565b50611b1161338162ffffff19861660006008613d7b565b600060ff8216613abb57506000612e95565b613ace8460181c6001600160601b031690565b6001600160601b0316613ae460ff841685614de1565b1115613b4857613b2f613b008560781c6001600160601b031690565b6001600160601b0316613b1c8660181c6001600160601b031690565b6001600160601b0316858560ff166140bd565b60405162461bcd60e51b81526004016105969190614b7a565b60208260ff161115613bc25760405162461bcd60e51b815260206004820152603a60248201527f54797065644d656d566965772f696e646578202d20417474656d70746564207460448201527f6f20696e646578206d6f7265207468616e2033322062797465730000000000006064820152608401610596565b600882026000613bdb8660781c6001600160601b031690565b6001600160601b031690506000600160ff1b60001984011d91909501511695945050505050565b6000612e9583836014613cdf565b60008164ffffffffff16613c248460d81c90565b64ffffffffff16149392505050565b600080601f5b600f8160ff161115613c91576000613c52826008614e88565b60ff1685901c9050613c63816141e7565b61ffff16841793508160ff16601014613c7e57601084901b93505b50613c8a600182614ec8565b9050613c39565b50600f5b60ff8160ff161015613cd95760ff600882021684901c613cb4816141e7565b61ffff16831792508160ff16600014613ccf57601083901b92505b5060001901613c95565b50915091565b6000613cec826020614ec8565b613cf7906008614e88565b60ff16613d05858585613aa9565b901c949350505050565b60006001600160401b03821115613d775760405162461bcd60e51b815260206004820152602660248201527f53616665436173743a2076616c756520646f65736e27742066697420696e203660448201526534206269747360d01b6064820152608401610596565b5090565b6000612e92613d8b858585613aa9565b600881811c7eff00ff00ff00ff00ff00ff00ff00ff00ff00ff00ff00ff00ff00ff00ff00ff167fff00ff00ff00ff00ff00ff00ff00ff00ff00ff00ff00ff00ff00ff00ff00ff009290911b9190911617601081811c7dffff0000ffff0000ffff0000ffff0000ffff0000ffff0000ffff0000ffff167fffff0000ffff0000ffff0000ffff0000ffff0000ffff0000ffff0000ffff00009290911b9190911617602081811c7bffffffff00000000ffffffff00000000ffffffff00000000ffffffff167fffffffff00000000ffffffff00000000ffffffff00000000ffffffff000000009290911b9190911617604081811c77ffffffffffffffff0000000000000000ffffffffffffffff1677ffffffffffffffff0000000000000000ffffffffffffffff199290911b9190911617608081811c91901b1790565b60606000613ef9613ef482613ee6601887901c6001600160601b0316614217565b62ffffff1987169190613cdf565b613c33565b6040517f4e6f6e2d6d696e696d616c2076617220696e742e20476f74203078000000000060208201526dffffffffffffffffffffffffffff19607083901b16603b82015290925060009150604d016132f6565b6000613f618260181c6001600160601b031690565b613f748360781c6001600160601b031690565b613f7e9190614e1e565b6001600160601b031692915050565b6000613f998260d81c90565b64ffffffffff1664ffffffffff1415613fb4575060006113cb565b6000613fbf83613f4c565b60405110199392505050565b60608315613fda575081612e95565b825115613fea5782518084602001fd5b8160405162461bcd60e51b81526004016105969190614b7a565b600081600561401281612b7f565b506000614020856024613328565b9050806001600160401b03166140358261346f565b60ff166140429190614de1565b61404d906024614de1565b612b6d906004614de1565b600063ffffffff821115613d775760405162461bcd60e51b815260206004820152602660248201527f53616665436173743a2076616c756520646f65736e27742066697420696e203360448201526532206269747360d01b6064820152608401610596565b606060006140ca86613c33565b91505060006140d886613c33565b91505060006140e686613c33565b91505060006140f486613c33565b604080517f54797065644d656d566965772f696e646578202d204f76657272616e20746865602082015274040ecd2caee5c40a6d8d2c6ca40d2e640c2e84060f605b1b818301526001600160d01b031960d098891b811660558301526e040eed2e8d040d8cadccee8d04060f608b1b605b830181905297891b8116606a8301527f2e20417474656d7074656420746f20696e646578206174206f666673657420306070830152600f60fb1b609083015295881b861660918201526097810196909652951b90921660a68401525050601760f91b60ac8201528151808203608d01815260ad90910190915295945050505050565b60006141f960048360ff16901c614278565b60ff161760081b62ffff001661420e82614278565b60ff1617919050565b600060ff821115613d775760405162461bcd60e51b815260206004820152602560248201527f53616665436173743a2076616c756520646f65736e27742066697420696e2038604482015264206269747360d81b6064820152608401610596565b600060f08083179060ff821614156142945760309150506113cb565b8060ff1660f114156142aa5760319150506113cb565b8060ff1660f214156142c05760329150506113cb565b8060ff1660f314156142d65760339150506113cb565b8060ff1660f414156142ec5760349150506113cb565b8060ff1660f514156143025760359150506113cb565b8060ff1660f614156143185760369150506113cb565b8060ff1660f7141561432e5760379150506113cb565b8060ff1660f814156143445760389150506113cb565b8060ff1660f9141561435a5760399150506113cb565b8060ff1660fa14156143705760619150506113cb565b8060ff1660fb14156143865760629150506113cb565b8060ff1660fc141561439c5760639150506113cb565b8060ff1660fd14156143b25760649150506113cb565b8060ff1660fe14156143c85760659150506113cb565b8060ff1660ff14156143de5760669150506113cb565b50919050565b5080546143f090614f1b565b6000825580601f106144025750611c25565b601f016020900490600052602060002090810190611c25919061449c565b82805461442c90614f1b565b90600052602060002090601f01602090048101928261444e5760008555614494565b82601f1061446757805160ff1916838001178555614494565b82800160010185558215614494579182015b82811115614494578251825591602001919060010190614479565b50613d779291505b5b80821115613d77576000815560010161449d565b80356001600160a01b03811681146113cb57600080fd5b600082601f8301126144d8578081fd5b813560206001600160401b038211156144f3576144f3614f81565b6145008182840201614db1565b82815281810190858301855b8581101561453557614523898684358b01016145d3565b8452928401929084019060010161450c565b5090979650505050505050565b80356001600160e01b0319811681146113cb57600080fd5b600082601f83011261456a578081fd5b81356001600160401b0381111561458357614583614f81565b614596601f8201601f1916602001614db1565b8181528460208386010111156145aa578283fd5b816020850160208301379081016020019190915292915050565b8035600681106113cb57600080fd5b6000608082840312156145e4578081fd5b6145ee6080614db1565b90506145f982614542565b815260208201356001600160401b038082111561461557600080fd5b6146218583860161455a565b6020840152604084013591508082111561463a57600080fd5b506146478482850161455a565b60408301525061465960608301614542565b606082015292915050565b600060208284031215614675578081fd5b612e95826144b1565b60006020828403121561468f578081fd5b8135612e9581614f97565b6000602082840312156146ab578081fd5b8151612e9581614f97565b6000602082840312156146c7578081fd5b5051919050565b600080604083850312156146e0578081fd5b823591506146f0602084016144b1565b90509250929050565b6000806000806080858703121561470e578182fd5b8435935061471e602086016144b1565b925060408501356001600160401b03811115614738578283fd5b6147448782880161455a565b925050614753606086016145c4565b905092959194509250565b600080600060608486031215614772578283fd5b83359250614782602085016144b1565b9150604084013590509250925092565b60008060008060008060008060006101208a8c0312156147b0578485fd5b893598506147c060208b016144b1565b975060408a0135965060608a01356001600160401b03808211156147e2578687fd5b6147ee8d838e016145d3565b975060808c0135965060a08c0135955060c08c0135915080821115614811578485fd5b61481d8d838e0161455a565b945060e08c013593506101008c013591508082111561483a578283fd5b506148478c828d016144c8565b9150509295985092959850929598565b60008060408385031215614869578182fd5b50508035926020909101359150565b600060208284031215614889578081fd5b81356001600160401b0381111561489e578182fd5b611b118482850161455a565b600080600080600080600080610100898b0312156148c6578182fd5b88356001600160401b03808211156148dc578384fd5b6148e88c838d0161455a565b99506148f660208c016145c4565b985060408b0135975060608b0135965060808b0135915060ff8216821461491b578384fd5b90945060a08a01359080821115614930578384fd5b5061493d8b828c016145d3565b93505060c0890135915060e089013590509295985092959890939650565b60006020828403121561496c578081fd5b5035919050565b6000815180845261498b816020860160208601614eeb565b601f01601f19169290920160200192915050565b600681106149bd57634e487b7160e01b600052602160045260246000fd5b9052565b6001600160f81b03198316815281516000906149e4816001850160208701614eeb565b919091016001019392505050565b600063ffffffff60e01b80871683528551614a14816004860160208a01614eeb565b855190840190614a2b816004840160208a01614eeb565b919094169301600481019390935250506008019392505050565b60008251614a57818460208701614eeb565b9190910192915050565b60008351614a73818460208801614eeb565b6001600160f81b0319939093169190920190815260010192915050565b600085825284602083015260806040830152614aaf6080830185614973565b905082606083015295945050505050565b89815260208101899052604081018890526001600160a01b0387811660608301528616608082015261012060a08201819052600090614b0183820188614973565b915050614b1160c083018661499f565b60e08201939093526101000152979650505050505050565b600060c08252614b3c60c0830189614973565b9050614b4b602083018861499f565b6001600160a01b0395909516604082015260608101939093526080830191909152151560a09091015292915050565b600060208252612e956020830184614973565b60208082526024908201527f426974636f696e4e46544d61726b6574706c6163653a206e6f74206e6674206f6040820152633bb732b960e11b606082015260800190565b6020808252601b908201527f426974636f696e48656c7065723a20766f7574206973206e756c6c0000000000604082015260600190565b60208082526022908201527f426974636f696e4e46544d61726b6574706c6163653a20496e76616c6964206c60408201526132b760f11b606082015260800190565b60208082526010908201526f14185d5cd8589b194e881c185d5cd95960821b604082015260600190565b60208082526026908201527f426974636f696e4e46544d61726b6574706c6163653a206e6f74207472616e736040820152651999995c995960d21b606082015260800190565b60208082526026908201527f426974636f696e4e46544d61726b6574706c6163653a2061646472657373206960408201526573207a65726f60d01b606082015260800190565b60208082526025908201527f426974636f696e4e46544d61726b6574706c6163653a20696e76616c6964207360408201526418dc9a5c1d60da1b606082015260800190565b6020808252818101527f4f776e61626c653a2063616c6c6572206973206e6f7420746865206f776e6572604082015260600190565b6020808252601f908201527f5265656e7472616e637947756172643a207265656e7472616e742063616c6c00604082015260600190565b604051601f8201601f191681016001600160401b0381118282101715614dd957614dd9614f81565b604052919050565b60008219821115614df457614df4614f6b565b500190565b600060ff821660ff84168060ff03821115614e1657614e16614f6b565b019392505050565b60006001600160601b03808316818516808303821115614e4057614e40614f6b565b01949350505050565b600082614e6457634e487b7160e01b81526012600452602481fd5b500490565b6000816000190483118215151615614e8357614e83614f6b565b500290565b600060ff821660ff84168160ff0481118215151615614ea957614ea9614f6b565b029392505050565b600082821015614ec357614ec3614f6b565b500390565b600060ff821660ff841680821015614ee257614ee2614f6b565b90039392505050565b60005b83811015614f06578181015183820152602001614eee565b83811115614f15576000848401525b50505050565b600281046001821680614f2f57607f821691505b602082108114156143de57634e487b7160e01b600052602260045260246000fd5b6000600019821415614f6457614f64614f6b565b5060010190565b634e487b7160e01b600052601160045260246000fd5b634e487b7160e01b600052604160045260246000fd5b8015158114611c2557600080fdfe416464726573733a206c6f772d6c6576656c2063616c6c20776974682076616c7565206661696c6564a26469706673582212206c33e56e4212a2a271397116649726282e735dc377f98017846d70b5b84d82e364736f6c634300080200334f776e61626c653a2063616c6c6572206973206e6f7420746865206f776e6572426974636f696e4e46544d61726b6574706c6163653a20616464726573732069",
  "devdoc": {
    "kind": "dev",
    "methods": {
      "acceptBid(bytes32,uint256)": {
        "details": "Will be reverted if the seller has already accepted a bid",
        "params": {
          "_bidIdx": "Index of the bid in bids list",
          "_txId": "of the NFT"
        }
      },
      "listNFT(bytes,uint8,bytes32,bytes32,uint8,(bytes4,bytes,bytes,bytes4),uint256,uint256)": {
        "details": "User should sign the txId of the NFT with the same private key that holds the NFT if isSignRequired is true",
        "params": {
          "_bitcoinPubKey": "Bitcoin PubKey of the NFT holder (without starting '04'). Don't need to be passed in the case of Taproot",
          "_outputIdx": "Index of the output that includes NFT",
          "_r": "Part of signature of _bitcoinPubKey for the txId (or `e` challenge for schnorr sig)",
          "_s": "Part of signature of _bitcoinPubKey for the txId",
          "_satoshiIdx": "Index of the inscribed satoshi in the output satoshis",
          "_scriptType": "Type of the account that holds the NFT",
          "_tx": "Transaction that includes the NFT",
          "_v": "is needed for recovering the public key (it can be 27 or 28)"
        }
      },
      "owner()": {
        "details": "Returns the address of the current owner."
      },
      "pause()": {
        "details": "Only owner can pause "
      },
      "paused()": {
        "details": "Returns true if the contract is paused, and false otherwise."
      },
      "putBid(bytes32,address,bytes,uint8)": {
        "details": "User sends the bid amount along with the request",
        "params": {
          "_buyerBTCScript": "Seller will send the NFT to the provided script (it doesn't include op_codes)",
          "_scriptType": "Type of the script",
          "_seller": "Address of the seller",
          "_txId": "of the NFT"
        }
      },
      "renounceOwnership()": {
        "details": "Leaves the contract without owner. It will not be possible to call `onlyOwner` functions anymore. Can only be called by the current owner. NOTE: Renouncing ownership will leave the contract without an owner, thereby removing any functionality that is only available to the owner."
      },
      "revokeBid(bytes32,address,uint256)": {
        "details": "Buyers can withdraw their funds after deadline       (deadline is 0 for a non-accepted bid, so they can withdaw at any time)Only bid owner can call this function",
        "params": {
          "_bidIdx": "Index of the bid in bids list",
          "_seller": "Address of the seller",
          "_txId": "of the NFT"
        }
      },
      "sellNFT(bytes32,address,uint256,(bytes4,bytes,bytes,bytes4),uint256,uint256,bytes,uint256,(bytes4,bytes,bytes,bytes4)[])": {
        "params": {
          "_bidIdx": "Index of the accepted bid in bids list",
          "_blockNumber": "Height of the block containing _transferTx",
          "_index": "Index of _transferTx in the block",
          "_inputTxs": "List of all transactions that were spent by _transferTx before the input that spent the NFT",
          "_intermediateNodes": "Merkle inclusion proof for _transferTx",
          "_outputNFTIdx": "Index of output that includes NFT",
          "_seller": "Address of the seller",
          "_transferTx": "transaction that transffred NFT from seller to buyer",
          "_txId": "of the NFT"
        }
      },
      "setIsSignRequired(bool)": {
        "params": {
          "_isSignRequired": "new requirements"
        }
      },
      "setProtocolFee(uint256)": {
        "params": {
          "_protocolFee": "The new protocol fee"
        }
      },
      "setRelay(address)": {
        "params": {
          "_relay": "The new relay contract address"
        }
      },
      "setTransferDeadline(uint256)": {
        "details": "Deadline should be greater than relay finalization parameter",
        "params": {
          "_transferDeadline": "The new transfer deadline"
        }
      },
      "setTreasury(address)": {
        "params": {
          "_treasury": "The new treasury address"
        }
      },
      "transferOwnership(address)": {
        "details": "Transfers ownership of the contract to a new account (`newOwner`). Can only be called by the current owner."
      },
      "unpause()": {
        "details": "Only owner can pause"
      }
    },
    "version": 1
  },
  "userdoc": {
    "kind": "user",
    "methods": {
      "_bytesToAddress(bytes)": {
        "notice": "Convert bytes with length 20 to address"
      },
      "_convertToBytes32(bytes)": {
        "notice": "Convert bytes with length 32 to bytes32"
      },
      "acceptBid(bytes32,uint256)": {
        "notice": "Accepts one of the existing bids"
      },
      "listNFT(bytes,uint8,bytes32,bytes32,uint8,(bytes4,bytes,bytes,bytes4),uint256,uint256)": {
        "notice": "Lists NFT of a user"
      },
      "pause()": {
        "notice": "Pause the contract so only the functions can be called which are whenPaused"
      },
      "putBid(bytes32,address,bytes,uint8)": {
        "notice": "Puts bid for buyying an NTF"
      },
      "revokeBid(bytes32,address,uint256)": {
        "notice": "Removes buyer's bid"
      },
      "sellNFT(bytes32,address,uint256,(bytes4,bytes,bytes,bytes4),uint256,uint256,bytes,uint256,(bytes4,bytes,bytes,bytes4)[])": {
        "notice": "Sends ETH to seller after checking the proof of transfer"
      },
      "setIsSignRequired(bool)": {
        "notice": "Setter for signing requirements"
      },
      "setProtocolFee(uint256)": {
        "notice": "Setter for protocol fee"
      },
      "setRelay(address)": {
        "notice": "Setter for relay contract address"
      },
      "setTransferDeadline(uint256)": {
        "notice": "Setter for deadline of sending NFT"
      },
      "setTreasury(address)": {
        "notice": "Setter for treasury address"
      },
      "unpause()": {
        "notice": "Unpause the contract so only the functions can be called which are whenNotPaused"
      }
    },
    "version": 1
  },
  "storageLayout": {
    "storage": [
      {
        "astId": 7,
        "contract": "contracts/marketplace/BitcoinNFTMarketplace.sol:BitcoinNFTMarketplace",
        "label": "_owner",
        "offset": 0,
        "slot": "0",
        "type": "t_address"
      },
      {
        "astId": 206,
        "contract": "contracts/marketplace/BitcoinNFTMarketplace.sol:BitcoinNFTMarketplace",
        "label": "_status",
        "offset": 0,
        "slot": "1",
        "type": "t_uint256"
      },
      {
        "astId": 121,
        "contract": "contracts/marketplace/BitcoinNFTMarketplace.sol:BitcoinNFTMarketplace",
        "label": "_paused",
        "offset": 0,
        "slot": "2",
        "type": "t_bool"
      },
      {
        "astId": 5048,
        "contract": "contracts/marketplace/BitcoinNFTMarketplace.sol:BitcoinNFTMarketplace",
        "label": "relay",
        "offset": 1,
        "slot": "2",
        "type": "t_address"
      },
      {
        "astId": 5051,
        "contract": "contracts/marketplace/BitcoinNFTMarketplace.sol:BitcoinNFTMarketplace",
        "label": "isSignRequired",
        "offset": 21,
        "slot": "2",
        "type": "t_bool"
      },
      {
        "astId": 5054,
        "contract": "contracts/marketplace/BitcoinNFTMarketplace.sol:BitcoinNFTMarketplace",
        "label": "transferDeadline",
        "offset": 0,
        "slot": "3",
        "type": "t_uint256"
      },
      {
        "astId": 5057,
        "contract": "contracts/marketplace/BitcoinNFTMarketplace.sol:BitcoinNFTMarketplace",
        "label": "protocolFee",
        "offset": 0,
        "slot": "4",
        "type": "t_uint256"
      },
      {
        "astId": 5060,
        "contract": "contracts/marketplace/BitcoinNFTMarketplace.sol:BitcoinNFTMarketplace",
        "label": "treasury",
        "offset": 0,
        "slot": "5",
        "type": "t_address"
      },
      {
        "astId": 5076,
        "contract": "contracts/marketplace/BitcoinNFTMarketplace.sol:BitcoinNFTMarketplace",
        "label": "nfts",
        "offset": 0,
        "slot": "6",
        "type": "t_mapping(t_bytes32,t_mapping(t_address,t_struct(NFT)6519_storage))"
      },
      {
        "astId": 5084,
        "contract": "contracts/marketplace/BitcoinNFTMarketplace.sol:BitcoinNFTMarketplace",
        "label": "bids",
        "offset": 0,
        "slot": "7",
        "type": "t_mapping(t_bytes32,t_mapping(t_address,t_array(t_struct(Bid)6533_storage)dyn_storage))"
      }
    ],
    "types": {
      "t_address": {
        "encoding": "inplace",
        "label": "address",
        "numberOfBytes": "20"
      },
      "t_array(t_struct(Bid)6533_storage)dyn_storage": {
        "base": "t_struct(Bid)6533_storage",
        "encoding": "dynamic_array",
        "label": "struct IBitcoinNFTMarketplace.Bid[]",
        "numberOfBytes": "32"
      },
      "t_bool": {
        "encoding": "inplace",
        "label": "bool",
        "numberOfBytes": "1"
      },
      "t_bytes32": {
        "encoding": "inplace",
        "label": "bytes32",
        "numberOfBytes": "32"
      },
      "t_bytes_storage": {
        "encoding": "bytes",
        "label": "bytes",
        "numberOfBytes": "32"
      },
      "t_enum(ScriptTypes)7052": {
        "encoding": "inplace",
        "label": "enum ScriptTypes",
        "numberOfBytes": "1"
      },
      "t_mapping(t_address,t_array(t_struct(Bid)6533_storage)dyn_storage)": {
        "encoding": "mapping",
        "key": "t_address",
        "label": "mapping(address => struct IBitcoinNFTMarketplace.Bid[])",
        "numberOfBytes": "32",
        "value": "t_array(t_struct(Bid)6533_storage)dyn_storage"
      },
      "t_mapping(t_address,t_struct(NFT)6519_storage)": {
        "encoding": "mapping",
        "key": "t_address",
        "label": "mapping(address => struct IBitcoinNFTMarketplace.NFT)",
        "numberOfBytes": "32",
        "value": "t_struct(NFT)6519_storage"
      },
      "t_mapping(t_bytes32,t_mapping(t_address,t_array(t_struct(Bid)6533_storage)dyn_storage))": {
        "encoding": "mapping",
        "key": "t_bytes32",
        "label": "mapping(bytes32 => mapping(address => struct IBitcoinNFTMarketplace.Bid[]))",
        "numberOfBytes": "32",
        "value": "t_mapping(t_address,t_array(t_struct(Bid)6533_storage)dyn_storage)"
      },
      "t_mapping(t_bytes32,t_mapping(t_address,t_struct(NFT)6519_storage))": {
        "encoding": "mapping",
        "key": "t_bytes32",
        "label": "mapping(bytes32 => mapping(address => struct IBitcoinNFTMarketplace.NFT))",
        "numberOfBytes": "32",
        "value": "t_mapping(t_address,t_struct(NFT)6519_storage)"
      },
      "t_struct(Bid)6533_storage": {
        "encoding": "inplace",
        "label": "struct IBitcoinNFTMarketplace.Bid",
        "members": [
          {
            "astId": 6521,
            "contract": "contracts/marketplace/BitcoinNFTMarketplace.sol:BitcoinNFTMarketplace",
            "label": "buyerBTCScript",
            "offset": 0,
            "slot": "0",
            "type": "t_bytes_storage"
          },
          {
            "astId": 6524,
            "contract": "contracts/marketplace/BitcoinNFTMarketplace.sol:BitcoinNFTMarketplace",
            "label": "buyerScriptType",
            "offset": 0,
            "slot": "1",
            "type": "t_enum(ScriptTypes)7052"
          },
          {
            "astId": 6526,
            "contract": "contracts/marketplace/BitcoinNFTMarketplace.sol:BitcoinNFTMarketplace",
            "label": "buyerETHAddress",
            "offset": 1,
            "slot": "1",
            "type": "t_address"
          },
          {
            "astId": 6528,
            "contract": "contracts/marketplace/BitcoinNFTMarketplace.sol:BitcoinNFTMarketplace",
            "label": "bidAmount",
            "offset": 0,
            "slot": "2",
            "type": "t_uint256"
          },
          {
            "astId": 6530,
            "contract": "contracts/marketplace/BitcoinNFTMarketplace.sol:BitcoinNFTMarketplace",
            "label": "deadline",
            "offset": 0,
            "slot": "3",
            "type": "t_uint256"
          },
          {
            "astId": 6532,
            "contract": "contracts/marketplace/BitcoinNFTMarketplace.sol:BitcoinNFTMarketplace",
            "label": "isAccepted",
            "offset": 0,
            "slot": "4",
            "type": "t_bool"
          }
        ],
        "numberOfBytes": "160"
      },
      "t_struct(NFT)6519_storage": {
        "encoding": "inplace",
        "label": "struct IBitcoinNFTMarketplace.NFT",
        "members": [
          {
            "astId": 6510,
            "contract": "contracts/marketplace/BitcoinNFTMarketplace.sol:BitcoinNFTMarketplace",
            "label": "outputIdx",
            "offset": 0,
            "slot": "0",
            "type": "t_uint256"
          },
          {
            "astId": 6512,
            "contract": "contracts/marketplace/BitcoinNFTMarketplace.sol:BitcoinNFTMarketplace",
            "label": "satoshiIdx",
            "offset": 0,
            "slot": "1",
            "type": "t_uint256"
          },
          {
            "astId": 6514,
            "contract": "contracts/marketplace/BitcoinNFTMarketplace.sol:BitcoinNFTMarketplace",
            "label": "isSold",
            "offset": 0,
            "slot": "2",
            "type": "t_bool"
          },
          {
            "astId": 6516,
            "contract": "contracts/marketplace/BitcoinNFTMarketplace.sol:BitcoinNFTMarketplace",
            "label": "hasAccepted",
            "offset": 1,
            "slot": "2",
            "type": "t_bool"
          },
          {
            "astId": 6518,
            "contract": "contracts/marketplace/BitcoinNFTMarketplace.sol:BitcoinNFTMarketplace",
            "label": "isListed",
            "offset": 2,
            "slot": "2",
            "type": "t_bool"
          }
        ],
        "numberOfBytes": "96"
      },
      "t_uint256": {
        "encoding": "inplace",
        "label": "uint256",
        "numberOfBytes": "32"
      }
    }
  }
}